:1000000002C100000C944E0B0C94230B0C94F80AC4
:100010000C94CD0A0C94A20A0C94770A0C944C0A06
:100020000C94210A21C100001FC100001DC1000065
:100030001BC1000019C1000017C1000015C100005C
:1000400013C1000011C100000FC100000DC100006C
:100050000BC1000009C1000007C100000C94D709C2
:1000600003C100000C94A1090C947809FDC00000A4
:10007000FBC00000F9C00000F7C00000F5C00000A0
:10008000F3C00000F1C00000EFC00000EDC00000B0
:10009000EBC00000E9C00000E7C00000E5C00000C0
:1000A000E3C00000E1C00000DFC00000DDC00000D0
:1000B000DBC00000D9C00000D7C00000D5C00000E0
:1000C000D3C00000D1C00000CFC00000CDC00000F0
:1000D000CBC00000C9C00000C7C00000C5C0000000
:1000E000C3C0000000002100240027002A002D00CA
:1000F0003000330001010000040107010A01000083
:100100002200250028002B002E00310034000201BF
:100110000000050108010B0100000A0B02090C0D8B
:100120000E080703040100000000000000000000AA
:1001300000000000000000000000000000000000BF
:10014000000000001211100000000000000000007C
:10015000000000000000000000000000000000009F
:1001600020002300260029002C002F00320000016F
:10017000000003010601090105050505070508083A
:100180000808020202020A0A080804040404010121
:100190000101010101010303030303030303040736
:1001A00007070C0C0C0C0C0C0C0C020202020606CD
:1001B0000606060606060B0B0B0B0B0B0B0B0102C0
:1001C0001020200808102040102040800201020169
:1001D0000804020101020408102040808040201021
:1001E000080402018004020180402010080402017A
:1001F00008040201010204081020408001020408E2
:1002000010204080790B11241FBECFEFD1E2DEBF5A
:10021000CDBF00E00CBF12E0A0E0B2E0E8E7F8E2FA
:1002200000E00BBF02C007900D92A637B107D9F7C7
:1002300023E0A6E7B2E001C01D92AE38B207E1F7B5
:1002400011E0C3E0D1E000E006C021970109802F52
:10025000FE010E942C14C230D10780E00807A9F7E4
:100260000E94A80B0C943A14CBCE883008F051C0F1
:10027000E82FF0E0EE0FFF1FE050FE4F7183608328
:100280008150873058F5E82FF0E08827E55BFE4F76
:100290008F4F0C942C1475015201590160016701B4
:1002A0007C01830180916900836080936900E89AF2
:1002B0000895809169008C6080936900E99A08959F
:1002C00080916900806380936900EA9A0895809123
:1002D0006900806C80936900EB9A089580916A00B0
:1002E000836080936A00EC9A089580916A008C6024
:1002F00080936A00ED9A089580916A0080638093EC
:100300006A00EE9A089580916A00806C80936A007A
:10031000EF9A0895AF92BF92CF92DF92EF92FF9241
:100320000F931F93CF93DF936C017B018B01040F1D
:10033000151FEB015E01AE18BF08C017D10759F0B9
:100340006991D601ED91FC910190F081E02DC601FB
:100350001995892B79F7C501DF91CF911F910F91E5
:10036000FF90EF90DF90CF90BF90AF900895FC0189
:10037000538D448D252F30E0842F90E0821B930B0A
:10038000541710F0CF96089501970895FC01918DB0
:10039000828D981761F0A28DAE0FBF2FB11D5D96B3
:1003A0008C91928D9F5F9F73928F90E008958FEF55
:1003B0009FEF0895FC01918D828D981731F0828D09
:1003C000E80FF11D858D90E008958FEF9FEF089560
:1003D000FC01918D228D892F90E0805C9F4F821BC4
:1003E00091098F739927089583EE92E0F1DF21E060
:1003F000892B09F420E0822F0895FC01A48DA80F19
:10040000B92FB11DA35ABF4F2C91848D90E0019656
:100410008F739927848FA689B7892C93A089B18976
:100420008C91837080648C93938D848D981306C017
:100430000288F389E02D80818F7D80830895EF927B
:10044000FF920F931F93CF93DF93EC0181E0888F8E
:100450009B8D8C8D98131AC0E889F989808185FF5E
:1004600015C09FB7F894EE89FF896083E889F98900
:1004700080818370806480839FBF81E090E0DF9102
:10048000CF911F910F91FF90EF900895F62E0B8D55
:1004900010E00F5F1F4F0F731127E02E8C8D8E1110
:1004A0000BC00FB607FCFACFE889F989808185FF78
:1004B000F5CFCE01A2DFF2CFEB8DEC0FFD2FF11DBA
:1004C000E35AFF4FF0829FB7F8940B8FEA89FB89BC
:1004D00080818062D0CF682F83EE92E0B0CFCF933F
:1004E000C82F89E690E0F7DF8C2FCC0F990BF3DF54
:1004F00089E090E0CF91EFCFCF93DF93EC01888D2F
:100500008823B1F0AA89BB89E889F9898C9185FD96
:1005100003C0808186FD0CC00FB607FCF7CF8C911D
:1005200085FFF2CF808185FFEDCFCE0166DFEACF78
:10053000DF91CF91089580E090E0892B21F054DF86
:1005400081110E94000080E090E0892B49F080E05A
:1005500090E0892B29F00E94000081110E94000088
:1005600080E090E0892B49F080E090E0892B29F031
:100570000E94000081110E94000080E090E0892B21
:1005800049F080E090E0892B29F00E940000811161
:100590000C94000008958150823108F05AC0E82F71
:1005A000F0E08827E952FD4F8F4F0C942C14F7028E
:1005B000FB02E902EF02F3022903FE02040308032F
:1005C0000E03120316031C032003290324032A032A
:1005D0002E03809180008F77809380000895809112
:1005E00080008F7DF9CF80918000877FF5CF84B523
:1005F0008F7784BD089584B58F7DFBCF8091B00047
:100600008F778093B00008958091B0008F7DF9CFEF
:10061000809190008F778093900008958091900052
:100620008F7DF9CF80919000877FF5CF8091A000DA
:100630008F778093A00008958091A0008F7DF9CFDF
:100640008091A000877FF5CF809120018F778093E4
:1006500020010895809120018F7DF9CF80912001A4
:10066000877FF5CFCF93DF93282F30E0F901E85E45
:10067000FE4F8491F901E254FE4FD491F901E858FC
:10068000FE4FC491CC2399F0811185DFEC2FF0E06F
:10069000EE0FFF1FE25AFE4FA591B491EC91ED23AE
:1006A00081E090E009F480E0DF91CF91089580E04F
:1006B00090E0FACF1F93CF93DF93282F30E0F9011A
:1006C000E85EFE4F8491F901E254FE4FD491F901A6
:1006D000E858FE4FC491CC23A1F0162F81115BDFA7
:1006E000EC2FF0E0EE0FFF1FE250FF4FA591B49109
:1006F0008FB7F894EC91111108C0D095DE23DC93EC
:100700008FBFDF91CF911F910895DE2BF8CFCF934C
:10071000DF9390E0FC01E254FE4F249188589E4FF5
:10072000FC0184918823D1F090E0880F991FFC018F
:10073000EC51FF4FA591B491FC01E250FF4FC591E0
:10074000D49161110EC09FB7F8948C91E22FE0957F
:100750008E238C932881E223E8839FBFDF91CF9182
:1007600008958FB7F894EC91E22BEC938FBFF6CFFE
:100770001F93CF93DF93182FEB0161E0C8DF209721
:1007800031F460E0812FDF91CF911F9193CFCF3F64
:10079000D10511F461E0F6CFE12FF0E0E85EFE4F05
:1007A000E491E150E23108F0B3C0F0E08827E45270
:1007B000FC4F8F4F0C942C14EE03F603FB0305043F
:1007C0000F04880419042104290433043D04470458
:1007D0005604600488046A0474047E0484B5806846
:1007E00084BDC7BDDF91CF911F91089584B580620C
:1007F00084BDC8BDF7CF8091800080688093800061
:10080000D0938900C0938800EDCF809180008062F2
:1008100080938000D0938B00C0938A00E3CF8091B7
:100820008000886080938000D0938D00C0938C00FE
:10083000D9CF8091B00080688093B000C093B3009E
:10084000D1CF8091B00080628093B000C093B4009B
:10085000C9CF80919000806880939000D0939900D8
:10086000C0939800BFCF80919000806280939000E9
:10087000D0939B00C0939A00B5CF80919000886080
:1008800080939000D0939D00C0939C00ABCF80914B
:10089000A00080688093A0008091A0008F7B80934F
:1008A000A000D093A900C093A8009CCF8091A00085
:1008B00080628093A000D093AB00C093AA0092CF37
:1008C0008091A00088608093A000D093AD00C09379
:1008D000AC0088CF80912001806880932001D09364
:1008E0002901C09328017ECF8091200180628093EE
:1008F0002001D0932B01C0932A0174CF8091200155
:10090000886080932001D0932D01C0932C016ACF81
:10091000C038D1050CF03ECF34CF863308F0865373
:1009200020917B00982F9870277F922B90937B00CB
:100930008770806480937C0080917A0080648093CB
:100940007A0080917A0086FDFCCF809178009091AA
:10095000790008953FB7F8948091CB029091CC0232
:10096000A091CD02B091CE0226B5A89B05C02F3F25
:1009700019F00196A11DB11D3FBFBA2FA92F982FC5
:100980008827BC01CD01620F711D811D911D42E0C0
:10099000660F771F881F991F4A95D1F70895282F52
:1009A00030E0883080F4F9018827E652FB4F8F4F02
:1009B0000C942C14F304F504E204ED04EF04F104A8
:1009C000F704F904E898220F331FF901E050FE4FB5
:1009D0008BEF94E0918380830895E998F4CFEA98AF
:1009E000F2CFEB98F0CFEC98EECFED98ECCFEE98FD
:1009F000EACFEF98E8CF08950F931F93CF93DF933B
:100A0000182F062FEB018991082E000C990B63DD3E
:100A10008C2F801B8117BCF389E090E0DF91CF9190
:100A20001F910F9158CD082E000C990B54DD89E0D1
:100A300090E051CDCF92DF92EF92FF928FB7F89472
:100A4000C090C702D090C802E090C902F090CA02DC
:100A50008FBFC092A202D092A302E092A402F092B1
:100A6000A50280919E0290919F02A091A002B09158
:100A7000A102A7019601281B390B4A0B5B0BDA0177
:100A8000C901893C9105A105B10510F081E027DD80
:100A9000C0929E02D0929F02E092A002F092A10228
:100AA000FF90EF90DF90CF900895CF92DF92EF927A
:100AB000FF928FB7F894C090C702D090C802E09020
:100AC000C902F090CA028FBFC092B202D092B302A4
:100AD000E092B402F092B5028091AE029091AF0222
:100AE000A091B002B091B102A7019601281B390B69
:100AF0004A0B5B0BDA01C901893C9105A105B105DF
:100B000010F083E0ECDCC092AE02D092AF02E09233
:100B1000B002F092B102FF90EF90DF90CF90089575
:100B2000CF92DF92EF92FF928FB7F894C090C702F6
:100B3000D090C802E090C902F090CA028FBFC09264
:100B4000AA02D092AB02E092AC02F092AD02809188
:100B5000A6029091A702A091A802B091A902A701B4
:100B60009601281B390B4A0B5B0BDA01C901893C42
:100B70009105A105B10510F082E0B1DCC092A6029A
:100B8000D092A702E092A802F092A902FF90EF9003
:100B9000DF90CF900895CF92DF92EF92FF928FB7C0
:100BA000F894C090C702D090C802E090C902F090BB
:100BB000CA028FBFC0929A02D0929B02E0929C021E
:100BC000F0929D028091960290919702A0919802D6
:100BD000B0919902A7019601281B390B4A0B5B0BB8
:100BE000DA01C901893C9105A105B10510F080E049
:100BF00076DCC0929602D0929702E0929802F09230
:100C00009902FF90EF90DF90CF9008957F928F929E
:100C10009F92AF92BF92CF92DF92EF92FF920F938B
:100C20001F93CF93DF93D82F80918D03882309F0F2
:100C3000F8948D2F90E0FC01E254FE4F7490FC017B
:100C4000E858FE4FE491F0E0EE0FFF1FE25AFE4F2E
:100C50000591149161E05BDD60E08D2F2BDD7ADE84
:100C60004B015C0142E1C42ED12CE12CF12C72DE4F
:100C7000681979098A099B09683E734081059105C5
:100C8000B0F321E0C21AD108E108F10888EE880E1D
:100C900083E0981EA11CB11CC114D104E104F1042D
:100CA00031F760E08D2F33DD80E293E0F8012081A1
:100CB000272121F00197D1F7CDEF56C080E991E0CF
:100CC000E8012881272121F40197D1F7CCEF4CC00E
:100CD00080E991E0F8012081272149F00197D1F7BF
:100CE000CBEF42C0B52F711113C0C0E03DC0A0E0F2
:100CF00060E040E8D12CC12C80E991E0E0E9F1E02E
:100D0000B0E078E220E9822E99249394A12CB12CB2
:100D1000E8015881572121F5BB2311F1783209F000
:100D200068C08E179F0708F4FC0175016401CE1A94
:100D3000DF0AE108F10882E0F594E794D794C794BC
:100D40008A95D1F7469549F48A2F90E080589C4FB8
:100D5000EC016887AF5F60E040E8715080E991E0A6
:100D6000019709F0BFCFCEEF80918D03882309F062
:100D70007894109188031F7710938803D0918A0389
:100D8000DF77D0938A03612F70E090E080E00E94CB
:100D9000C6136093800370938103809382039093C2
:100DA00083036D2F70E090E080E00E94C613609393
:100DB00084037093850380938603909387038091C7
:100DC000890390918B03890F810F8D0F90918C0374
:100DD0008913CFEF8C2FDF91CF911F910F91FF904F
:100DE000EF90DF90CF90BF90AF909F908F907F90CB
:100DF00008957F01EC18FD08E816F90608F4A2CF63
:100E0000642BA0CF1F93CF93DF93EC01162F0E948A
:100E10003213181739F0612FCE01DF91CF911F9156
:100E20000C943A13DF91CF911F910895FF920F9385
:100E30001F93CF93DF93F82E08E212E0C1E0D0E0D9
:100E4000F80181918F016F2D082E000C990BDADFCC
:100E5000F1100CC0CE010197FC01E153FD4F10824F
:100E6000805F9D4F60E0FC01808124DC2196C530CD
:100E7000D10531F781E0DF91CF911F910F91FF9064
:100E80000895FF920F931F93CF93DF93F82E0CE2F8
:100E900012E0C1E0D0E0F80181918F016F2D082EA2
:100EA000000C990BAFDFF1100DC0CE010197FC01D2
:100EB000ED52FD4F10828C5E9D4F70E060E0FC01B2
:100EC000808156DC2196C530D10529F781E0DF917C
:100ED000CF911F910F91FF9008959F92AF92BF9273
:100EE000CF92DF92EF92FF920F931F93CF93DF93F6
:100EF000982E88E4C82E82E0D82E9CE3E92E92E05A
:100F0000F92E28E1A22E22E0B22EC1E0D0E0F601B7
:100F100091916F01F70181917F01F50101915F01CD
:100F2000002E000C110B981309C0FE01E15DFD4F6E
:100F3000808160E0082E000C990B64DF692DC801E8
:100F400061DF2196CD30D10511F781E0DF91CF919E
:100F50001F910F91FF90EF90DF90CF90BF90AF90D7
:100F60009F9008950C943213DF92EF92FF920F93AB
:100F70001F93CF93DF9388E2E82E82E0F82E02ECF5
:100F800012E0C1E0D0E0DD24DA94F70181917F0125
:100F9000082E000C990BE6DF8130B1F4FE01E2531C
:100FA000FD4F8081F801808321960F5F1F4FC53070
:100FB000D10559F782EC92E0DF91CF911F910F910B
:100FC000FF90EF90DF900895F801D082EDCFFF926F
:100FD0000F931F93CF93DF9308E212E0CEEBD2E0A2
:100FE000FF24FA94F80181918F01082E000C990BCF
:100FF000B9DF813071F488832196F2E00C321F074B
:1010000089F78EEB92E0DF91CF911F910F91FF90C6
:101010000895F882F1CF1F93CF93DF93162FC82F37
:10102000880FDD0BFE01E85DFD4F8081082E000C6E
:10103000990B98DF813071F4FE01E153FD4F10836D
:10104000C05FDD4F612F888135DB81E0DF91CF917B
:101050001F9108958FEFFACFDF92EF92FF920F93D7
:101060001F93CF93DF938CE2E82E82E0F82E0AEBF9
:1010700012E0C1E0D0E0DD24DA94F70181917F0134
:10108000082E000C990B6EDF8130B1F4FE01EE5298
:10109000FD4F8081F801808321960F5F1F4FC5307F
:1010A000D10559F78AEB92E0DF91CF911F910F9113
:1010B000FF90EF90DF900895F801D082EDCFFF927E
:1010C0000F931F93CF93DF930CE212E0C6EBD2E0B5
:1010D000FF24FA94F80181918F01082E000C990BDE
:1010E00041DF813071F488832196F2E000331F07DD
:1010F00089F786EB92E0DF91CF911F910F91FF90DE
:101100000895F882F1CF1F93CF93DF93162FC82F46
:10111000880FDD0BFE01E45DFD4F8081082E000C81
:10112000990B20DF8130D9F4FE01ED52FD4F108381
:10113000A12F110FBB0B2FEF30E00E94341424E6D7
:1011400030E040E050E00E944813CC5EDD4FB90132
:1011500088810EDB81E0DF91CF911F9108958FEFA1
:10116000FACFDF92EF92FF920F931F93CF93DF930B
:1011700088E1E82E82E0F82E0AE812E0C1E0D0E033
:10118000DD24DA94F70181917F01082E000C990B80
:10119000E9DE8130B9F4FE01E95BFD4F808162DA5E
:1011A000F801808321960F5F1F4FCD30D10551F795
:1011B0008AE892E0DF91CF911F910F91FF90EF901D
:1011C000DF900895F801D082EDCFFF920F931F9327
:1011D000CF93DF9308E112E0CEE7D2E0FF24FA9448
:1011E000F80181918F01082E000C990BBBDE813034
:1011F00071F488832196F2E004321F0789F78EE7A5
:1012000092E0DF91CF911F910F91FF900895F882A6
:10121000F1CF8F929F92AF92BF92DF92EF92FF92A7
:101220000F931F93CF93DF9384E5E82E82E0F82E8F
:101230000AE712E0C1E0D0E0DD24DA9488248A9441
:1012400093E0992EA12CB12CF70181917F01082EFA
:10125000000C990B87DE813021F5FE01ED5DFD4F1D
:1012600080815BDB24E630E0DC010E943414A501C0
:1012700094010E944813F801208321960F5F1F4FAD
:10128000C530D10509F78AE792E0DF91CF911F9130
:101290000F91FF90EF90DF90BF90AF909F908F9055
:1012A0000895F801D082E9CFFF920F931F93CF9357
:1012B000DF9304E512E0C6E7D2E0FF24FA94F801D8
:1012C00081918F01082E000C990B4CDE813071F456
:1012D00088832196F2E008351F0789F786E792E0B8
:1012E000DF91CF911F910F91FF900895F882F1CF78
:1012F0001F920F920FB60F9211240BB60F922F93DD
:101300003F934F935F936F937F938F939F93AF938D
:10131000BF93EF93FF9383EE92E06FD8FF91EF912D
:10132000BF91AF919F918F917F916F915F914F91FD
:101330003F912F910F900BBE0F900FBE0F901F90FB
:1013400018951F920F920FB60F9211240BB60F92A1
:101350002F938F939F93EF93FF93E091F302F0917C
:10136000F4028081E091F902F091FA0282FD1DC041
:1013700090818091FC028F5F8F732091FD02821714
:1013800041F0E091FC02F0E0ED51FD4F958F80932C
:10139000FC02FF91EF919F918F912F910F900BBEC7
:1013A0000F900FBE0F901F9018958081F2CF1F9263
:1013B0000F920FB60F9211242F933F938F939F9309
:1013C000AF93BF938091C7029091C802A091C902C8
:1013D000B091CA023091C60223E0230F2D3758F591
:1013E0000196A11DB11D2093C6028093C702909360
:1013F000C802A093C902B093CA028091CB02909117
:10140000CC02A091CD02B091CE020196A11DB11DDA
:101410008093CB029093CC02A093CD02B093CE02E6
:10142000BF91AF919F918F913F912F910F900FBEE0
:101430000F901F90189526E8230F0296A11DB11D4D
:10144000D2CF1F920F920FB60F9211240BB60F92AC
:101450002F933F934F935F936F937F938F939F93BC
:10146000AF93BF93EF93FF93E0910E02F0910F02C1
:101470001995FF91EF91BF91AF919F918F917F91BE
:101480006F915F914F913F912F910F900BBE0F90F5
:101490000FBE0F901F9018951F920F920FB60F92CC
:1014A00011240BB60F922F933F934F935F936F933B
:1014B0007F938F939F93AF93BF93EF93FF93E091AD
:1014C0000C02F0910D021995FF91EF91BF91AF9130
:1014D0009F918F917F916F915F914F913F912F914C
:1014E0000F900BBE0F900FBE0F901F9018951F927C
:1014F0000F920FB60F9211240BB60F922F933F93BA
:101500004F935F936F937F938F939F93AF93BF930B
:10151000EF93FF93E0910202F09103021995FF917E
:10152000EF91BF91AF919F918F917F916F915F915B
:101530004F913F912F910F900BBE0F900FBE0F90C8
:101540001F9018951F920F920FB60F9211240BB691
:101550000F922F933F934F935F936F937F938F934C
:101560009F93AF93BF93EF93FF93E0910002F091AD
:1015700001021995FF91EF91BF91AF919F918F91CA
:101580007F916F915F914F913F912F910F900BBE83
:101590000F900FBE0F901F9018951F920F920FB6CD
:1015A0000F9211240BB60F922F933F934F935F939B
:1015B0006F937F938F939F93AF93BF93EF93FF931B
:1015C000E0910A02F0910B021995FF91EF91BF9102
:1015D000AF919F918F917F916F915F914F913F91CB
:1015E0002F910F900BBE0F900FBE0F901F9018956C
:1015F0001F920F920FB60F9211240BB60F922F93DA
:101600003F934F935F936F937F938F939F93AF938A
:10161000BF93EF93FF93E0910802F09109021995AF
:10162000FF91EF91BF91AF919F918F917F916F91BA
:101630005F914F913F912F910F900BBE0F900FBE76
:101640000F901F9018951F920F920FB60F921124B2
:101650000BB60F922F933F934F935F936F937F93AC
:101660008F939F93AF93BF93EF93FF93E091060205
:10167000F09107021995FF91EF91BF91AF919F9162
:101680008F917F916F915F914F913F912F910F902B
:101690000BBE0F900FBE0F901F9018951F920F92C8
:1016A0000FB60F9211240BB60F922F933F934F93C7
:1016B0005F936F937F938F939F93AF93BF93EF93BA
:1016C000FF93E0910402F09105021995FF91EF91CB
:1016D000BF91AF919F918F917F916F915F914F914A
:1016E0003F912F910F900BBE0F900FBE0F901F9048
:1016F0001895E3EEF2E01382128288EE93E0A0E008
:10170000B0E084839583A683B78388E692E09183D3
:10171000808385EC90E09587848784EC90E09787C0
:10172000868780EC90E0918B808B81EC90E0938BAE
:10173000828B82EC90E0958B848B86EC90E0978B8B
:10174000868B118E128E138E148E10928D03089537
:10175000CF93DF93CDB7DEB7E0970FB6F894DEBF37
:101760000FBECDBF789484B5826084BD84B581609E
:1017700084BD85B5826085BD85B5816085BD80915C
:101780006E00816080936E001092810080918100D4
:1017900082608093810080918100816080938100CC
:1017A000809180008160809380008091B10084608E
:1017B0008093B1008091B00081608093B0008091EF
:1017C000910082608093910080919100816080936C
:1017D0009100809190008160809390008091A100A1
:1017E00082608093A1008091A10081608093A1001C
:1017F0008091A00081608093A0008091210182608F
:101800008093210180912101816080932101809149
:10181000200181608093200180917A008460809310
:101820007A0080917A00826080937A0080917A00B9
:10183000816080937A0080917A00806880937A003A
:101840001092C100E091F302F091F40282E08083F3
:10185000E091EF02F091F0021082E091F102F0913C
:10186000F20280E180831092FB02E091F702F09196
:10187000F80286E08083E091F502F091F602808123
:1018800080618083E091F502F091F60280818860AA
:101890008083E091F502F091F60280818068808378
:1018A000E091F502F091F60280818F7D808354E50E
:1018B000E52E52E0F52E08E412E060E0D8018D91AB
:1018C0008D010E948703E016F106B9F704E212E0E9
:1018D00038E5C32E32E0D32E48E2A42E42E0B42EE7
:1018E000760160E0F80181918F010E94870361E039
:1018F000D7018D917D010E948703A016B10689F75B
:1019000000E112E09CE5492E92E0592E24E1A22E3E
:1019100022E0B22E720161E0F80181918F010E94F4
:10192000870361E0D7018D917D010E948703A01696
:10193000B10689F704E112E080E6E82E82E0F82E95
:10194000570161E0F80181918F010E94870361E0F6
:10195000D5018D915D010E948703B2E008311B071C
:1019600081F7FCE36F2EF2E07F2EA8E4AA2EA2E01E
:10197000BA2E01E010E0B7E18B2EF50191905F01E6
:10198000D3018D913D01981217C0F801E15DFD4F23
:101990008081082E000C990BE5DA813009F0B4C083
:1019A000B5E19B1285C060E085E10E9487036BEC86
:1019B00075E082E00E9435010F5F1F4F0D30110569
:1019C000E1F604E512E0D8018D918D01082E000C9E
:1019D000990BC8DAF60191916F0161E0813009F04D
:1019E00060E0892F0E945A03F2E008351F0759F77B
:1019F000E0E3CE2EE2E0DE2E0CE212E0D8018D9183
:101A00008D01082E000C990BADDAF70191917F0141
:101A100061E0813009F060E0892F0E945A03C0160E
:101A2000D10661F77CE2E72E72E0F72E08E212E0C1
:101A3000D8018D918D01082E000C990B93DAF201DB
:101A400091912F0161E0813009F060E0892F0E94BF
:101A50005A03E016F10661F788E19FE00FB6F894AB
:101A6000A895809360000FBE9093600044244A9430
:101A700043E0542E612C712CAE014B5D5F4F5AA791
:101A800049A757E1952E64E6C62ED12CE12CF12C06
:101A90008DB79EB798AB8FA783EE92E00E94E801C6
:101AA00010E0892B09F064C0A8950E949B02F0CF3A
:101AB000E3E19E1208C060E083E10E9487036AE1CF
:101AC00075E084E077CFF4E160E09F1207C084E125
:101AD0000E94870360E975E083E06CCF892D0E9446
:101AE000870322E080E0921651F043E081E09416F3
:101AF00031F08EEE890D843028F4882D891965E542
:101B000075E058CF8FEFFBCF60E0892D0E948703EF
:101B100052E0951669F083E0981661F08EEE890D1B
:101B2000843008F049CF882D89190E94CF0444CF12
:101B300080E0FBCF81E0F9CF993409F478C4933584
:101B4000C1F59A8D943409F064C09B8D913499F558
:101B5000CE014C9662D5C1D90E9413055EC449E1FD
:101B600050E04C0F5D1F240F351FD9018C931F5F70
:101B700083EE92E00E94E80118161906CCF783EE76
:101B800092E00E94C601212F012E000C330B8A30F7
:101B900031F7A9E1B0E0AC0FBD1F2A0F3B1FF901DF
:101BA0001082998D973409F48AC234F6933409F47B
:101BB00086C48DEFD1CF0C8D00539053989F000DAC
:101BC00011240C3008F025C4CE014D9626D5B82E30
:101BD00010E0D801A85BBD4FF801E45CFD4F9C917B
:101BE0008081F80198130BC0E05DFD4F8081082EC5
:101BF000000C990BB7D9813009F45EC3F801E85E97
:101C0000FD4F80816B2D082E000C990BFBD881E0D5
:101C1000A3CF913409F040C00B8D013429F5CE01DA
:101C20004C96FBD4182F682F8CE090E0EBD8612FF6
:101C30008DE090E0E7D8612F8EE090E0E3D8612F4F
:101C40008FE090E0DFD8612F85E20E945A03612F78
:101C500088E20E945A03612F89E20E945A03612F91
:101C600086E20E945A03D3CF0053043008F0D1C358
:101C7000CE014C96D2D4B82E10E0F801EC5AFD4FAC
:101C800080816B2D082E000C990BBCD8F801E85A06
:101C9000FD4F6B2D8081E5CF923509F074C00B8D1F
:101CA0000635A1F51C8D113431F5CE014D96B5D414
:101CB000882E38E2A32E32E0B32E01E010E0F501C9
:101CC00081915F01082E000C990B4CD9813069F489
:101CD000C8010197FC01E153FD4F8082805F9D4F59
:101CE000682DDC018C910E945A030F5F1F4F053055
:101CF000110529F78CCF1053143008F08AC3CE0198
:101D00004D968BD4682F812F86D926CF0134C1F40C
:101D1000CE014C9682D4182F89D8082F612F80E2EB
:101D20000E945A03612F8FE10E945A03612F8EE1B6
:101D30000E945A03612F87E20E945A03802F0CCF22
:101D40000053043008F065C3CE014C9666D4B82E1B
:101D500010E0F801E85DFD4F80816B2D082E000C2E
:101D6000990B50D8B1100BC0F801E153FD4F108210
:101D700060E0F801E05FFD4F80810E945A03F801A6
:101D8000E45AFD4F86CF903509F07FC00B8D0635A4
:101D900009F03EC01C8D113481F5CE014D963DD425
:101DA000882EA82F880FBB0B2FEF30E05DD5A70141
:101DB00096016ED419012CE2A22E22E0B22E01E08F
:101DC00010E0F50181915F01082E000C990BCAD833
:101DD000813069F4C8010197FC01ED52FD4F80820A
:101DE0008C5E9D4FB101DC018C910E94B8030F5FA6
:101DF0001F4F0530110529F70ACF1053143008F092
:101E000008C3CE014D9609D4682F812F7CD9A4CE6A
:101E10000134B1F4CE014C9600D4182F812F31D863
:101E2000082F612F84E20E945A03612F82E20E94F0
:101E30005A03612F81E20E945A03612F83E27CCF13
:101E40000053043008F0E5C2CE014C96E6D3B82E1C
:101E500010E0F801E45DFD4F80816B2D082E000C31
:101E6000990B0E940207B1100CC0F801ED52FD4F12
:101E7000108270E060E0F801EC5EFD4F80810E940E
:101E8000B803F801E05AFD4F04CF993409F091CE20
:101E90008B8D813409F089C0CE014C96BED3282E9B
:101EA000ECE3F2E0FEA7EDA748E452E05CA74BA705
:101EB00001E010E0ABA5BCA53D90BCA7ABA7EDA58C
:101EC000FEA58191FEA7EDA7381227C05801F1E0C9
:101ED000AF1AB108F501E85EFD4F808160E0082E81
:101EE000000C990B0E940207F501E05DFD4F808117
:101EF000622D082E000C990B0E94020721E022128D
:101F00003DC045E134120FC060E085E10E948703C7
:101F10006BEC75E082E00E9435010F5F1F4F0D30C2
:101F2000110541F674CE53E1351208C060E083E13B
:101F30000E9487036AE175E084E0EDCF84E160E010
:101F4000381206C00E94870360E975E083E0E3CFA2
:101F5000832D0E94870392E080E0391651F0A3E0C0
:101F600081E03A1631F08EEE830D843028F4892D0D
:101F7000831965E575E0CFCF8FEFFBCF60E0832D50
:101F80000E948703B2E03B1661F0E3E03E1659F091
:101F90008EEE830D843008F6892D83190E94CF04BC
:101FA000BCCF80E0FBCF81E0F9CF0C8D0053805394
:101FB000FAE08F9F000D11240C3008F02AC2CE01E8
:101FC0004D962BD3A82E10E0F801E85BFD4FB080B2
:101FD000F801E45CFD4F8081B8126EC0F801E85E44
:101FE000FD4F8081082E000C990B0E94B2078130B2
:101FF00009F462C0F801E05DFD4F8081082E000CFD
:10200000990B21E0A2123CC061E00E94020745E169
:10201000B4120BC060E085E10E9487036BEC75E0B1
:1020200082E00E9435018A2D97CD53E1B51208C098
:1020300060E083E10E9487036AE175E084E0F1CF0C
:1020400084E160E0B81206C00E94870360E975E091
:1020500083E0E7CF8B2D0E94870392E080E0B916E2
:1020600051F0A3E081E0BA1631F08EEE8B0D843092
:1020700028F4892D8B1965E575E0D3CF8FEFFBCF61
:102080006A2D0E94020760E08B2D0E948703B2E058
:10209000BB1671F0E3E0BE1669F08EEE8B0D843056
:1020A00020F4892D8B190E94CF04AA24A394BBCFBE
:1020B00080E0F9CF81E0F7CFAA24AA94B4CF8A8D2B
:1020C000843409F090C08B8D843531F5CE014C9667
:1020D000A4D28C3008F09DC1082F880F110BF80195
:1020E000E85EFD4F8081082E000C990B0E94B2071C
:1020F000813009F0E1C0F801E85BFD4F80810E946A
:102100000606609184037091850380918603909107
:1021100087030BD3862F20CD883421F5CE014C9632
:102120007CD28C3008F075C1082F880F110BF80194
:10213000E85EFD4F8081082E000C990B0E94B207CB
:10214000813009F0B9C0F801E85BFD4F80810E9441
:1021500006066091800370918103809182039091C3
:102160008303D7CF863531F58C8D813439F40E94C5
:10217000B108BC018CE00E94FC044FC1CE014C961A
:102180004CD28C3008F045C1082F880F110BF80194
:10219000E85EFD4F8081082E000C990B0E94B2076B
:1021A000813009F089C0F801E85BFD4F80810E9411
:1021B0003203D2CC813411F408D8DBCFCE014B9658
:1021C0002CD28C3008F025C1E82F880FFF0BE85E79
:1021D000FD4F8081082E000C990B0E94B2078130C0
:1021E00009F415CD69C0813409F044C08B8D863562
:1021F00059F58C8D813421F40CD8BC0184E0BBCF1F
:10220000CE014C960AD2843008F003C1082F880F03
:10221000110BF801EC5AFD4F8081082E000C990B30
:102220000E94B207813009F047C0F801EC5DFD4F14
:1022300080810E948D0424E630E0DC0115D3A301E7
:10224000920126D2822F88CC813411F42DD8D5CF9B
:10225000CE014B96E2D1843008F0DBC0E82F880F26
:10226000FF0BEC5AFD4F8081082E000C990B0E9449
:10227000B207B5CF8235C9F58B8D8635F9F48C8DD3
:10228000813419F40E94B407B8CFCE014C96C5D161
:10229000843008F0BEC0082F880F110BF801E85DEC
:1022A000FD4F8081082E000C990B0E94B207F801A7
:1022B000E153FD4F8130D9F18FEF4ECC813419F4C9
:1022C0000E94E7079ACFCE014B96A7D1843008F041
:1022D000A0C0E82F880FFF0BE85DFD4F8081082E1E
:1022E000000C990B0E94B2077ACF8035C9F58B8D0F
:1022F0008635F9F48C8D813419F40E942C087DCF39
:10230000CE014C968AD1843008F083C0082F880F04
:10231000110BF801E45DFD4F8081082E000C990B34
:102320000E94B207813041F6F801ED52FD4F8081E5
:1023300013CC813419F40E945F085FCFCE014B9615
:102340006CD1843008F065C0E82F880FFF0BE45D86
:10235000FD4F8081082E000C990B0E94B2073FCFE1
:10236000893409F058C08B8D8134B9F507ED12E03E
:102370008CE3282E82E0382E48E452E05CA74BA77D
:10238000AA24A394B12CABA5BCA59D91BCA7ABA7D7
:10239000F10181911F0198131DC0F501E15DFD4F11
:1023A0008081082E000C990B0E94B207813071F4D5
:1023B000D8018C93BFEFAB1ABB0A0F5F1F4FEDE044
:1023C000AE16B10401F767ED72E0D4CE2FEFF8013D
:1023D0002083F0CFD8011C92EDCFCE014B961DD1BA
:1023E0008D30B8F4082E000C990BDC01A85BBD4FB2
:1023F000FC01E45CFD4F3C91208132130AC0805DFA
:102400009D4FDC018C91082E000C990B0E94B207A5
:10241000E6CE8EEFA1CB8D3439F4A8950FB6F894A3
:10242000DEBF0FBECDBF41CB8334B9F3C2CB8A8DA3
:102430008235D9F48B8D80538DA38C8D80538EA3E0
:102440008D8D80538FA38E8D805388A78E010B5D59
:102450001F4FB12CF80161918F018B2D0E940B0849
:10246000B394F4E0BF12F6CFD2CB803509F0A1CB04
:10247000FE0179968E010F5F1F4FD80134E62AE0E6
:102480009281905384818053939F800D1124938176
:102490009053929F800D11248D93339649A55AA590
:1024A0004E175F0769F7B12CD8016D918D018B2D07
:1024B0000E948308B394B4E0BB12F6CFA8CB8A8DF8
:1024C000833509F042C08B8D823509F072CBCE0185
:1024D0004C96A3D0182F0E946D07612F8CE090E0DE
:1024E0000E940207612F8DE090E00E940207612F99
:1024F0008EE090E00E940207612F8FE090E00E9442
:102500000207612F85E20E945A03612F88E20E9430
:102510005A03612F89E20E945A03612F86E20E94CA
:102520005A03812F0E941607612F80E20E945A03EE
:10253000612F8FE10E945A03612F8EE10E945A039E
:10254000612F87E20E945A0369CC8035B9F58B8DE3
:10255000813409F02ECB0E94E508FE0131969C01E2
:10256000245F3F4F8F01DC014D91CD014193A217B4
:10257000B307C9F70E945409FC0180818D878181CE
:102580008E8782818F878381888B0E94E707FC0179
:102590008081898B81818A8B82818B8B83818C8BDB
:1025A0000E945F08FC0180818D8B81818E8B8281EE
:1025B0008F8B8381888FB80188E1DDCD863509F066
:1025C000F8CA8B8D813409F0F4CA0E94B108FE016B
:1025D00031969C01245F3F4F8F01DC014D91CD016D
:1025E00041932A173B07C9F70E940909FC01808122
:1025F0008D8781818E8782818F878381888B0E94DE
:10260000B407FC018081898B81818A8B82818B8BCD
:1026100083818C8B0E942C08C5CFFC0188279927C9
:10262000E89421912032E9F3293010F02E30C8F3DC
:102630002B3239F02D3231F4689403C00BD0820F65
:10264000911D219120532A30C8F31EF49095819555
:102650009F4F08957AE0979F902D879F802D910D31
:1026600011240895F999FECF92BD81BDF89A99275A
:1026700080B50895262FF999FECF1FBA92BD81BD6E
:1026800020BD0FB6F894FA9AF99A0FBE01960895F4
:10269000052E97FB16F400940FD057FD05D014D0EB
:1026A00007FC02D046F408C050954095309521951E
:1026B0003F4F4F4F5F4F089590958095709561956E
:1026C0007F4F8F4F9F4F0895A1E21A2EAA1BBB1B6D
:1026D000FD010DC0AA1FBB1FEE1FFF1FA217B307EE
:1026E000E407F50720F0A21BB30BE40BF50B661F04
:1026F000771F881F991F1A9469F7609570958095C8
:1027000090959B01AC01BD01CF010895A29FB0013E
:10271000B39FC001A39F700D811D1124911DB29F15
:10272000700D811D1124911D089504D06894B1117C
:102730008DC0089570D088F09F5790F0B92F9927D9
:10274000B751A0F0D1F0660F771F881F991F1AF0BC
:10275000BA95C9F712C0B13081F077D0B1E00895D1
:1027600074C0672F782F8827B85F39F0B93FCCF352
:10277000869577956795B395D9F73EF490958095B2
:10278000709561957F4F8F4F9F4F0895E89409C0D2
:1027900097FB3EF490958095709561957F4F8F4F94
:1027A0009F4F9923A9F0F92F96E9BB279395F695AA
:1027B000879577956795B795F111F8CFFAF4BB0F28
:1027C00011F460FF1BC06F5F7F4F8F4F9F4F16C08C
:1027D000882311F096E911C0772321F09EE8872F16
:1027E000762F05C0662371F096E8862F70E060E0D2
:1027F0002AF09A95660F771F881FDAF7880F96954B
:10280000879597F9089557FD9058440F551F59F033
:102810005F3F71F04795880F97FB991F61F09F3FCD
:1028200079F087950895121613061406551FF2CFF6
:102830004695F1DF08C0161617061806991FF1CF46
:1028400086957105610508940895E894BB2766276D
:102850007727CB0197F90895EE0FFF1F881F8BBFD5
:102860000790F691E02D199451DFB7FF0895821B70
:08287000930B0895F894FFCFCB
:10287800FB04FB04FB04FB04FB04FB04FB04FB0458
:10288800191A1B1C0908070600010203040506079C
:1028980008090A0B45424443101112131415161760
:1028A80018191A1B1C1D1E1F2021222300000000BE
:1028B8001513000000001412020A312F1513350BEE
:1028C800302E14120C0D0E0F25282926201F1E2726
:1028D80024222123000000001F028A01B7017C0284
:0628E800E801C601DA015F
:00000001FF
